S0120000535344313330364C69622E7372656347
S11300000C94A7060C94C4060C94C4060C94C40661
S11300100C94C4060C94C4060C94C4060C94C40634
S11300200C94C4060C94C4060C94C4060C94C40624
S11300300C94C4060C94C4060C94C4060C94C40614
S11300400C94C4060C94C4060C94C4060C94C40604
S11300500C94C4060C94C4060C94C4060C94C406F4
S11300600C94C4060C94C406D6071B081B081B0872
S11300701B081B081B081B081B081B081B081B0864
S11300801B081B081B081B081B081B081B081B0854
S113009017081B081B081B081B081B081B081B0848
S11300A01B081B081B081B081B081B081B081B0834
S11300B01B081B080A081B081B081B081B081B0835
S11300C0FD071B081B08F0071B081B081B081B085F
S11300D0E3071B081B081B081B081B081B081B083D
S11300E01B081B081B081B081B081B081B081B08F4
S11300F01B081B08C9071B081B081B081B081B0837
S1130100BC07000000000000000000000000000028
S113011000000000000000000000000000000000DB
S113012000000000000000000000000000000000CB
S113013000000000000000000000000000000000BB
S113014000000000000000000000000000000000AB
S11306B00000000000000003C07807060C000000E2
S11306C0000000000000000FF1FC3FC73E000000E6
S11306D0000000000000001FF3FC7FC73C00000086
S11306E0000000000000003E23C4F847780000002A
S11306F0000000000000003C03C0F0077800000088
S11307000000000000000079F3F1E7C7F0000000EA
S1130710000000000000007BF1FDE7E7F0000000AE
S1130720000000000000007BF0FDE7E7F800000097
S1130730000000000000007C703EF1E7780000003B
S1130740000000000000003EF33EF9E73C0000001A
S1130750000000000000003FF3FC7FE73C000000C5
S1130760000000000000000FF3F83FC71E00000067
S1130770000000000000000380E00F000000000003
S11307800000000000000000000000000000000065
S11307900000000000000000000000000000000055
S11307A00000000000000000100000000000000035
S11307B000000000000000AB56AD3BB5CAE00000ED
S11307C000000000000000BB579D7BD5CFE0000077
S11307D00000000000000000000400000000000011
S11307E00000000000000000000000000000000005
S11307F000000000000000000000000000000000F5
S113080000000000000000000000000000000000E4
S113081000000000000000000000000000000000D4
S113082000000000000000000000000000000000C4
S113083000000000000000000000000000000000B4
S113084000000000000000000000000000000000A4
S11308500000000000000000000000000000000094
S11308600000000000000000000000000000000084
S11308700000000000000000000000000000000074
S11308800000000000000000000000000000000064
S11308900000000000000000000000000000000054
S11308A00000000000000000000000000000000044
S11308B00000000000000000000000000000000034
S11308C00000000000000000000000000000000024
S11308D00000000000000000000000000000000014
S11308E00000000000000000000000000000000004
S11308F000000000000000000000000000000000F4
S113090000000000000000000000002F00000000B4
S11309100700070000147F147F1400242A7F2A1282
S11309200062640813230036495522500000050371
S1130930000000001C224100000041221C000014A1
S1130940083E08140008083E0808000000A06000E3
S11309500008080808080000606000000020100873
S11309600402003E5149453E0000427F40000042DF
S113097061514946002141454B31001814127F1042
S1130980002745454539003C4A4949300001710971
S1130990050300364949493600064949291E000025
S11309A036360000000056360000000814224100CC
S11309B000141414141400004122140800020151FC
S11309C0090600324959513E007C1211127C007F05
S11309D049494936003E41414122007F4141221CA0
S11309E0007F49494941007F09090901003E414905
S11309F0497A007F0808087F0000417F41000020F9
S1130A0040413F01007F08142241007F40404040A4
S1130A10007F020C027F007F0408107F003E4141EA
S1130A20413E007F09090906003E4151215E007FD5
S1130A30091929460046494949310001017F01014C
S1130A40003F4040403F001F2040201F003F4038EF
S1130A50403F00631408146300070870080700612E
S1130A605149454300007F41410000552A552A550C
S1130A70000041417F0000040201020400404040A4
S1130A804040000001020400002054545478007FC8
S1130A904844443800384444442000384444487F9F
S1130AA000385454541800087E0901020018A4A404
S1130AB0A47C007F080404780000447D40000040CA
S1130AC080847D00007F102844000000417F4000A6
S1130AD0007C04180478007C08040478003844443A
S1130AE0443800FC242424180018242418FC007C16
S1130AF00804040800485454542000043F4440208F
S1130B00003C4040207C001C2040201C003C403025
S1130B10403C004428102844001CA0A0A07C0044B1
S1130B2064544C4400000877410000000063000056
S1130B30000041770800000804080804003D404014
S1130B40207D003D4040403D002154545479007DB7
S1130B501211127D003944444439003D4242423D61
S1130B60000205020000007E014955733C646424C0
S1130B7000005D557D00007D44447D007D40407D46
S1130B80002E6A6A3A000000001038383880C0C06D
S1130B90C00001010180E0F0701818183870E0C03E
S1130BA0003FFFFF800000000000FFFFFF00000186
S1130BB00303030303C3FF7F1F000706060606069D
S1130BC0070301000000C0E0F03818181870F0E0C6
S1130BD080000F9FFCE0E060E0F0BF1F07FCFFFF18
S1130BE0010000000000EFFFFE00010307060606F7
S1130BF006070703000C0C0C0C0C0C0CCCFC7C0C36
S1130C000000000080F0FE3F030000000000F8FF39
S1130C10FF070000000000000101010100000000C6
S1130C20000000C0E07030181818383840F8FFFF92
S1130C30636030306060E0C0801FFFFFC0000000D0
S1130C400000E3FFFF00000307070606060607038C
S1130C50001CFCFC0C0C0C0C0C0C0C001E1F1F0CC0
S1130C600C1C1838F8F0C0E0808080808080C0F9C7
S1130C707F3F0101010101010101000000000000AA
S1130C800080E0783CFCFC0C000080E0F83E0F01A2
S1130C900000FFFF0000000707060606060686FFA1
S1130CA0FF860606000000000000000101010100AB
S1130CB00070301818181838F0F0C00000000060F8
S1130CC0E0E0F0BF1F0F008000000000000183FF80
S1130CD0FE7C070606060606060703010038180C04
S1130CE00C0C1C3CF8F0E0000000000000C0FFFF0A
S1130CF01F80E0F0381C0F07010000030303030307
S1130D0003030303030808FCFCFC0000FFFFFF00CF
S1130D1000FFFFFF00000303030080E0F030181819
S1130D201838F0E08000FCFFFF0100000000000123
S1130D30FFFFFC0FFFFFE00000000000C0FFFF1FEB
S1130D40000001030706060607070300000011243C
S1130D501FBECFEFD8E0DEBFCDBF11E0A0E0B1E011
S1130D60E4E0F9E102C005900D92A235B107D9F78C
S1130D7025E0A2E5B1E001C01D92A235B207E1F77A
S1130D800E9408070C94800C0C94000094EA909341
S1130D90BC009091BC009923E4F79091B900987F2E
S1130DA0983091F48093BB0084E88093BC008091D8
S1130DB0BC008823E4F78091B900887F883131F042
S1130DC0803231F482E0089580E0089581E008954E
S1130DD083E0089584E98093BC008091BC0084FD85
S1130DE0FCCF08958093BB0084E88093BC0080917D
S1130DF0BC008823E4F78091B900887F883221F011
S1130E00803321F481E0089580E0089582E008951C
S1130E1000E020E040E860E482E091E00E943609CE
S1130E200E94090920E040E860E482E095E00E9425
S1130E3036090E9409090E94AC0820E040E860E4F9
S1130E4082E091E00E9436090E94090967E080E08F
S1130E500E946B0786E191E00E94380882E00E94BC
S1130E60BC0867E080E00E946B071F9284E18F93C7
S1130E708EE191E09F938F9382E591E09F938F930E
S1130E800E94960982E591E00E9438080F900F9025
S1130E900F900F900F900F90FFCF0F931F93CF934E
S1130EA0DF938C01D62F8AE70E94C60680E00E9459
S1130EB0F206C0E007C0F801EC0FF11D80810E942A
S1130EC0F206CF5FCD17B8F30E94EA06DF91CF9107
S1130ED01F910F910895CF93DF9300D000D0CDB729
S1130EE0DEB7813870F4683060F46055698391E24C
S1130EF09A838B838FE78C8364E0CE0101960E94F2
S1130F004D070F900F900F900F90DF91CF910895A0
S1130F10CF93DF93D0EED80FD03688F08C3F79F0A2
S1130F20863F69F0803B59F0843E49F08F3D39F0AB
S1130F308C3D29F0863D19F0843C09F096C0C82FF9
S1130F408AE70E94C60680E40E94F2068C2F90E095
S1130F50FC01E05BF109ED34F10508F06CC0EC5CD8
S1130F60FF4F0C949009EC2FF0E0E45CF44F849173
S1130F700E94F206CF5F01C0C0E0C630A0F373C088
S1130F80EC2FF0E0EC5AF44F84910E94F206CF5F0C
S1130F9001C0C0E0C630A0F366C0EC2FF0E0E05A18
S1130FA0F44F84910E94F206CF5F01C0C0E0C630C6
S1130FB0A0F359C0EC2FF0E0E85BF44F84910E9459
S1130FC0F206CF5F01C0C0E0C630A0F34CC0EC2FE6
S1130FD0F0E0EA59F44F84910E94F206CF5F01C019
S1130FE0C0E0C630A0F33FC0EC2FF0E0EE5BF44F5E
S1130FF084910E94F206CF5F01C0C0E0C630A0F326
S113100032C0EC2FF0E0E65AF44F84910E94F206CD
S1131010CF5F01C0C0E0C630A0F325C0EC2FF0E0E4
S1131020E25BF44F84910E94F206CF5F01C0C0E0FE
S1131030C630A0F318C0DF3598F015C08D2F90E0AE
S1131040FC01EE0FFF1FE80FF91FEE0FFF1FEC0F5F
S1131050F11DEE5FF64F84910E94F206CF5F01C04E
S1131060C0E0C63058F30E94EA06DF91CF9108959C
S1131070CF93DF93EC0103C021960E9488078881F7
S11310808111FACFDF91CF9108957F928F929F9231
S1131090AF92BF92CF92DF92EF92FF920F931F9382
S11310A0CF93DF935C01762ED22FE42EF12CC22E47
S11310B0D12CCE18DF08D594C7941C2D912C37C0A1
S11310C088248394890C682D872D0E946B078AE7F6
S11310D00E94C60680E40E94F206C0E023C0C11745
S11310E020F480E00E94F2061CC0EC2FF0E0C60160
S11310F099279701280F391FE217F3077CF4E81B9F
S1131100F90B9E9CC0019F9C900D1124E80FF91FC0
S1131110EA0DFB1D84910E94F20603C080E00E9448
S1131120F206CF5FCD17D8F20E94EA06982C802FE2
S1131130869586958695981608F4C2CFDF91CF914F
S11311401F910F91FF90EF90DF90CF90BF90AF90E1
S11311509F908F907F900895CF93C0E009C06C2F2B
S113116080E00E946B078AE291E00E943808CF5F1A
S1131170C830A8F3CF9108950F9390E0FC01EA5B87
S1131180FE4F4081880F991FFC01E050FF4F00E2A1
S113119028E162E3808191810E9445080F910895BE
S11311A08823B4F16034A0F54423C9F0962F9695B2
S11311B096959695E82FF0E080E8989FE00DF11D54
S11311C01124677081E090E002C0880F991F6A952E
S11311D0E2F7EE5AFE4F9081892B80830895962F73
S11311E0969596959695E82FF0E080E8989FE00D07
S11311F0F11D1124677081E090E002C0880F991FEF
S11312006A95E2F7EE5AFE4F809590818923808398
S11312100895CF93DF9361E08FE790E00E944D073C
S113122061E087E090E00E944D07D0E01AC08AE7B1
S11312300E94C60680E40E94F206C0E00DC0EC2FB6
S1131240F0E080E1D89FE00DF11D1124EE5AFE4F2D
S113125080810E94F206CF5FC03188F30E94EA06C3
S1131260DF5FD03420F3DF91CF910895AF92BF9226
S1131270CF92DF92EF92FF920F931F93CF93DF935E
S11312807C01A62EC42EB22E842F90E00796EC018A
S11312900AF42796D595C795D595C795D595C7953D
S11312A0D12C31C0E12FE695E695E695F0E0CD9D91
S11312B0E00DF11D1124EE0DFF1D8491912F977007
S11312C0E0E8F0E09F0102C0359527959A95E2F792
S11312D0E82FF0E0E223F323EF2B41F041E06D2D02
S11312E0600F812F8B0D0E94D00807C040E06D2D48
S11312F0600F812F8B0D0E94D0081F5F01C010E08A
S11313001C1580F2D394DA14D0F3DF91CF911F919E
S11313100F91FF90EF90DF90CF90BF90AF90089522
S1131320EE0FFF1F0590F491E02D0994AEE0B0E0BC
S1131330ECE9F9E00C94570C0D891E8986E08C8346
S11313401A8309838FEF9FE79E838D83AE01475EE7
S11313505F4F6F89788DCE0101960E94B809EF81A5
S1131360F885E00FF11F10822E96E4E00C94730CC4
S1131370ABE0B0E0EEEBF9E00C94490C6C017B01BE
S11313808A01FC0117821682838181FFCCC1CE01C0
S113139001963C01F6019381F70193FD859193FF3A
S11313A081917F01882309F4BAC1853239F493FD10
S11313B0859193FF81917F01853229F4B60190E0F4
S11313C00E94AF0BE7CF912C212C312CFFE1F315B8
S11313D0D8F08B3279F038F4803279F08332A1F48A
S11313E0232D20611DC08D3261F0803369F4232DDB
S11313F0216016C0832D8260382EE32DE4603E2EDA
S11314002AC0F32DF8601DC037FC2DC020ED280F35
S11314102A3040F08E32B9F436FC81C1232D206489
S1131420322E19C036FE06C08AE0989E200D112483
S1131430922E11C0EAE02E9E200D1124222EF32DAF
S1131440F0623F2E08C08C3621F4832D8068382E3C
S113145002C0883641F4F70193FD859193FF819191
S11314607F018111B3CF982F9F7D9554933028F439
S11314700C5F1F4F9FE399830DC0833631F0833790
S113148071F0833509F059C021C0F8018081898346
S11314900E5F1F4F88248394912C530113C028019D
S11314A0F2E04F0E511CF801A080B18036FE03C05B
S11314B0692D70E002C06FEF7FEFC5010E94A40B9D
S11314C04C018201F32DFF773F2E16C0280122E044
S11314D0420E511CF801A080B18036FE03C0692D74
S11314E070E002C06FEF7FEFC5010E94990B4C01C1
S11314F0F32DF0683F2E820133FC1BC0822D90E057
S113150088169906B0F4B60180E290E00E94AF0B11
S11315102A94F4CFF50137FC859137FE81915F0160
S1131520B60190E00E94AF0B21102A9421E0821AA8
S113153091088114910471F7E8C0843611F089365A
S113154041F5F80137FE07C0608171818281938182
S11315500C5F1F4F08C060817181072E000C880B3F
S1131560990B0E5F1F4FF32DFF763F2E97FF09C097
S113157090958095709561957F4F8F4F9F4FF06840
S11315803F2E2AE030E0A3010E94EB0B882E861840
S113159045C0853731F4232D2F7EB22E2AE030E06A
S11315A025C0932D997FB92E8F36C1F018F4883554
S11315B079F0B5C0803719F0883721F0B0C0E92F31
S11315C0E061BE2EB4FE0DC0FB2DF460BF2E09C039
S11315D034FE0AC0292F2660B22E06C028E030E06F
S11315E005C020E130E002C020E132E0F801B7FE9E
S11315F007C060817181828193810C5F1F4F06C097
S11316006081718180E090E00E5F1F4FA3010E9412
S1131610EB0B882E8618FB2DFF773F2E36FE0DC070
S1131620232D2E7FA22E891458F434FE0BC032FCD5
S113163009C0832D8E7EA82E05C0B82CA32C03C010
S1131640B82C01C0B92CA4FE0FC0FE01E80DF11D99
S11316508081803321F49A2D997EA92E09C0A2FE9F
S113166006C0B394B39404C08A2D867809F0B39469
S1131670A3FC11C0A0FE06C0B21488F4280C922C5E
S11316809B180EC0B21460F4B60180E290E00E9490
S1131690AF0BB394F7CFB21418F42B1802C0982CE4
S11316A0212CA4FE10C0B60180E390E00E94AF0B91
S11316B0A2FE17C0A1FC03C088E790E002C088E541
S11316C090E0B6010CC08A2D867859F0A1FE02C0C4
S11316D08BE201C080E2A7FC8DE2B60190E00E949B
S11316E0AF0B891438F4B60180E390E00E94AF0B8D
S11316F09A94F7CF8A94F301E80DF11D8081B60125
S113170090E00E94AF0B8110F5CF222009F442CE65
S1131710B60180E290E00E94AF0B2A94F6CFF60166
S11317208681978102C08FEF9FEF2B96E2E10C94A4
S1131730650CFC010590615070400110D8F780954C
S113174090958E0F9F1F0895FC0161507040019089
S11317500110D8F7809590958E0F9F1F08950F93D1
S11317601F93CF93DF93FB01238121FD03C08FEFF0
S11317709FEF2CC022FF16C04681578124813581FA
S11317804217530744F4A081B1819D012F5F3F4F5D
S1131790318320838C93268137812F5F3F4F37839A
S11317A0268314C08B01EC01FB010084F185E02D3C
S11317B00995892BE1F6D80116968D919C9117977E
S11317C0019617969C938E931697CE01DF91CF9135
S11317D01F910F910895FA01AA27283051F1203161
S11317E081F1E8946F936E7F6E5F7F4F8F4F9F4FB1
S11317F0AF4FB1E03ED0B4E03CD0670F781F891FF3
S11318009A1FA11D680F791F8A1F911DA11D6A0FC0
S1131810711D811D911DA11D20D009F468943F9173
S11318202AE0269F11243019305D3193DEF6CF0172
S11318300895462F4770405D4193B3E00FD0C9F738
S1131840F6CF462F4F70405D4A3318F0495D31FDA5
S11318504052419302D0A9F7EACFB4E0A6959795F8
S1131860879577956795BA95C9F7009761057105CE
S113187008959B01AC010A2E069457954795379518
S11318802795BA95C9F7620F731F841F951FA01D72
S113189008952F923F924F925F926F927F928F9210
S11318A09F92AF92BF92CF92DF92EF92FF920F93EB
S11318B01F93CF93DF93CDB7DEB7CA1BDB0B0FB6F5
S11318C0F894DEBF0FBECDBF09942A8839884888B2
S11318D05F846E847D848C849B84AA84B984C88448
S11318E0DF80EE80FD800C811B81AA81B981CE0F3F
S11318F0D11D0FB6F894DEBF0FBECDBFED01089524
S1071900F894FFCF85
S1131904190D050DDD0CB10C7D0C510C210CF50BDE
S1131914C50B950B850B6578616D706C65007765F7
S11319246174686572202564B00020202020202082
S1131934202020202020202020202020202020209F
S1131944006B6D2F68000D050A0B0D0B0C0B0C0CB2
S1051954040089
S9030000FC
